{
  "_format": "hh-sol-artifact-1",
  "contractName": "TwoRivalBooking",
  "sourceName": "contracts/TwoRivalBooking.sol",
  "abi": [
    {
      "inputs": [],
      "stateMutability": "nonpayable",
      "type": "constructor"
    },
    {
      "anonymous": false,
      "inputs": [
        {
          "indexed": false,
          "internalType": "bool",
          "name": "status",
          "type": "bool"
        }
      ],
      "name": "RegistrationCleared",
      "type": "event"
    },
    {
      "anonymous": false,
      "inputs": [
        {
          "indexed": false,
          "internalType": "uint8",
          "name": "roomNum",
          "type": "uint8"
        },
        {
          "indexed": false,
          "internalType": "uint8",
          "name": "hour",
          "type": "uint8"
        }
      ],
      "name": "RoomBooked",
      "type": "event"
    },
    {
      "anonymous": false,
      "inputs": [
        {
          "indexed": false,
          "internalType": "bool",
          "name": "status",
          "type": "bool"
        }
      ],
      "name": "UserRegistered",
      "type": "event"
    },
    {
      "inputs": [
        {
          "internalType": "uint8",
          "name": "hour",
          "type": "uint8"
        },
        {
          "internalType": "uint8",
          "name": "roomNum",
          "type": "uint8"
        }
      ],
      "name": "bookRoom",
      "outputs": [],
      "stateMutability": "nonpayable",
      "type": "function"
    },
    {
      "inputs": [],
      "name": "clearRegistration",
      "outputs": [],
      "stateMutability": "nonpayable",
      "type": "function"
    },
    {
      "inputs": [
        {
          "internalType": "uint8",
          "name": "roomNum",
          "type": "uint8"
        },
        {
          "internalType": "string",
          "name": "_group",
          "type": "string"
        }
      ],
      "name": "getRoom",
      "outputs": [
        {
          "internalType": "uint8[24]",
          "name": "",
          "type": "uint8[24]"
        }
      ],
      "stateMutability": "view",
      "type": "function"
    },
    {
      "inputs": [
        {
          "internalType": "string",
          "name": "_group",
          "type": "string"
        }
      ],
      "name": "registerUser",
      "outputs": [],
      "stateMutability": "nonpayable",
      "type": "function"
    },
    {
      "inputs": [],
      "name": "registrationStatus",
      "outputs": [
        {
          "internalType": "bool",
          "name": "",
          "type": "bool"
        }
      ],
      "stateMutability": "view",
      "type": "function"
    },
    {
      "inputs": [],
      "name": "totalBookings",
      "outputs": [
        {
          "internalType": "uint256",
          "name": "",
          "type": "uint256"
        }
      ],
      "stateMutability": "view",
      "type": "function"
    }
  ],
  "bytecode": "0x60806040523480156200001157600080fd5b50336000806101000a81548173ffffffffffffffffffffffffffffffffffffffff021916908373ffffffffffffffffffffffffffffffffffffffff1602179055506040518060400160405280600181526020017f5000000000000000000000000000000000000000000000000000000000000000815250600290805190602001906200009f92919062000110565b506040518060400160405280600181526020017f430000000000000000000000000000000000000000000000000000000000000081525060039080519060200190620000ed92919062000110565b50600a600660006101000a81548160ff021916908360ff16021790555062000225565b8280546200011e90620001c0565b90600052602060002090601f0160209004810192826200014257600085556200018e565b82601f106200015d57805160ff19168380011785556200018e565b828001600101855582156200018e579182015b828111156200018d57825182559160200191906001019062000170565b5b5090506200019d9190620001a1565b5090565b5b80821115620001bc576000816000905550600101620001a2565b5090565b60006002820490506001821680620001d957607f821691505b60208210811415620001f057620001ef620001f6565b5b50919050565b7f4e487b7100000000000000000000000000000000000000000000000000000000600052602260045260246000fd5b6119af80620002356000396000f3fe608060405234801561001057600080fd5b50600436106100625760003560e01c80630854254414610067578063460f4f8314610085578063704f1b94146100a1578063938f82b8146100bd5780639668ce3e146100c7578063b55d8033146100e5575b600080fd5b61006f610115565b60405161007c9190611533565b60405180910390f35b61009f600480360381019061009a919061128a565b610169565b005b6100bb60048036038101906100b691906111ed565b61080e565b005b6100c5610b76565b005b6100cf610caa565b6040516100dc919061160e565b60405180910390f35b6100ff60048036038101906100fa9190611232565b610cb4565b60405161010c9190611517565b60405180910390f35b6000600960003373ffffffffffffffffffffffffffffffffffffffff1673ffffffffffffffffffffffffffffffffffffffff16815260200190815260200160002060009054906101000a900460ff16905090565b600960003373ffffffffffffffffffffffffffffffffffffffff1673ffffffffffffffffffffffffffffffffffffffff16815260200190815260200160002060009054906101000a900460ff166101f5576040517f08c379a00000000000000000000000000000000000000000000000000000000081526004016101ec906115ee565b60405180910390fd5b600660009054906101000a900460ff1660ff168160ff161115801561021e575060018160ff1610155b61025d576040517f08c379a00000000000000000000000000000000000000000000000000000000081526004016102549061156e565b60405180910390fd5b6000600a60003373ffffffffffffffffffffffffffffffffffffffff1673ffffffffffffffffffffffffffffffffffffffff16815260200190815260200160002080546102a990611743565b80601f01602080910402602001604051908101604052809291908181526020018280546102d590611743565b80156103225780601f106102f757610100808354040283529160200191610322565b820191906000526020600020905b81548152906001019060200180831161030557829003601f168201915b5050505050905060026040516103389190611500565b60405180910390208180519060200120141561055a576000600760008460ff1660ff16815260200190815260200160002060003373ffffffffffffffffffffffffffffffffffffffff1673ffffffffffffffffffffffffffffffffffffffff168152602001908152602001600020601880602002604051908101604052809291908260188015610403576020028201916000905b82829054906101000a900460ff1660ff16815260200190600101906020826000010492830192600103820291508084116103cc5790505b505050505090506000818560ff1660188110610448577f4e487b7100000000000000000000000000000000000000000000000000000000600052603260045260246000fd5b602002015160ff1614610490576040517f08c379a00000000000000000000000000000000000000000000000000000000081526004016104879061154e565b60405180910390fd5b6001818560ff16601881106104ce577f4e487b7100000000000000000000000000000000000000000000000000000000600052603260045260246000fd5b602002018181516104df91906116b0565b91509060ff16908160ff168152505080600760008560ff1660ff16815260200190815260200160002060003373ffffffffffffffffffffffffffffffffffffffff1673ffffffffffffffffffffffffffffffffffffffff16815260200190815260200160002090601861055392919061102e565b5050610762565b6000600860008460ff1660ff16815260200190815260200160002060003373ffffffffffffffffffffffffffffffffffffffff1673ffffffffffffffffffffffffffffffffffffffff16815260200190815260200160002060188060200260405190810160405280929190826018801561060f576020028201916000905b82829054906101000a900460ff1660ff16815260200190600101906020826000010492830192600103820291508084116105d85790505b505050505090506000818560ff1660188110610654577f4e487b7100000000000000000000000000000000000000000000000000000000600052603260045260246000fd5b602002015160ff161461069c576040517f08c379a00000000000000000000000000000000000000000000000000000000081526004016106939061154e565b60405180910390fd5b6001818560ff16601881106106da577f4e487b7100000000000000000000000000000000000000000000000000000000600052603260045260246000fd5b602002018181516106eb91906116b0565b91509060ff16908160ff168152505080600860008560ff1660ff16815260200190815260200160002060003373ffffffffffffffffffffffffffffffffffffffff1673ffffffffffffffffffffffffffffffffffffffff16815260200190815260200160002090601861075f92919061102e565b50505b6001600960003373ffffffffffffffffffffffffffffffffffffffff1673ffffffffffffffffffffffffffffffffffffffff16815260200190815260200160002060006101000a81548160ff0219169083151502179055506005600081546107c990611775565b919050819055507f1653bde251e6d9b8816eaea35348a5c25354e7c6c425205197f83b0344a904c18284604051610801929190611629565b60405180910390a1505050565b600960003373ffffffffffffffffffffffffffffffffffffffff1673ffffffffffffffffffffffffffffffffffffffff16815260200190815260200160002060009054906101000a900460ff161561089b576040517f08c379a0000000000000000000000000000000000000000000000000000000008152600401610892906115ae565b60405180910390fd5b60026040516108aa9190611500565b604051809103902082826040516108c29291906114e7565b604051809103902014158015610905575060036040516108e29190611500565b604051809103902082826040516108fa9291906114e7565b604051809103902014155b15610945576040517f08c379a000000000000000000000000000000000000000000000000000000000815260040161093c9061158e565b60405180910390fd5b60006001905060005b6001805490508160ff161015610a11573373ffffffffffffffffffffffffffffffffffffffff1660018260ff16815481106109b2577f4e487b7100000000000000000000000000000000000000000000000000000000600052603260045260246000fd5b9060005260206000200160009054906101000a900473ffffffffffffffffffffffffffffffffffffffff1673ffffffffffffffffffffffffffffffffffffffff1614156109fe57600091505b8080610a09906117be565b91505061094e565b508015610a7c576001339080600181540180825580915050600190039060005260206000200160009091909190916101000a81548173ffffffffffffffffffffffffffffffffffffffff021916908373ffffffffffffffffffffffffffffffffffffffff1602179055505b6001600960003373ffffffffffffffffffffffffffffffffffffffff1673ffffffffffffffffffffffffffffffffffffffff16815260200190815260200160002060006101000a81548160ff0219169083151502179055508282600a60003373ffffffffffffffffffffffffffffffffffffffff1673ffffffffffffffffffffffffffffffffffffffff1681526020019081526020016000209190610b229291906110c8565b50600460008154610b3290611775565b919050819055507fe993a15218140a471b20682b2995883f02e49baad60ead15cb7c64054c028f0b6001604051610b699190611533565b60405180910390a1505050565b600960003373ffffffffffffffffffffffffffffffffffffffff1673ffffffffffffffffffffffffffffffffffffffff16815260200190815260200160002060009054906101000a900460ff16610c02576040517f08c379a0000000000000000000000000000000000000000000000000000000008152600401610bf9906115ce565b60405180910390fd5b6000600960003373ffffffffffffffffffffffffffffffffffffffff1673ffffffffffffffffffffffffffffffffffffffff16815260200190815260200160002060006101000a81548160ff021916908315150217905550600460008154610c6990611719565b919050819055507f22a38c3321ba24fb25ce42832e3ab2acaaf48d6bbe71c96a0bf8c2fd6e39a55e6001604051610ca09190611533565b60405180910390a1565b6000600554905090565b610cbc61114e565b610cc461114e565b60005b6001805490508160ff16101561102257600060018260ff1681548110610d16577f4e487b7100000000000000000000000000000000000000000000000000000000600052603260045260246000fd5b9060005260206000200160009054906101000a900473ffffffffffffffffffffffffffffffffffffffff169050600960008273ffffffffffffffffffffffffffffffffffffffff1673ffffffffffffffffffffffffffffffffffffffff16815260200190815260200160002060009054906101000a900460ff161561100e57610d9d61114e565b6002604051610dac9190611500565b60405180910390208787604051610dc49291906114e7565b60405180910390201415610e9157600760008960ff1660ff16815260200190815260200160002060008373ffffffffffffffffffffffffffffffffffffffff1673ffffffffffffffffffffffffffffffffffffffff168152602001908152602001600020601880602002604051908101604052809291908260188015610e85576020028201916000905b82829054906101000a900460ff1660ff1681526020019060010190602082600001049283019260010382029150808411610e4e5790505b50505050509050610f4c565b600860008960ff1660ff16815260200190815260200160002060008373ffffffffffffffffffffffffffffffffffffffff1673ffffffffffffffffffffffffffffffffffffffff168152602001908152602001600020601880602002604051908101604052809291908260188015610f44576020028201916000905b82829054906101000a900460ff1660ff1681526020019060010190602082600001049283019260010382029150808411610f0d5790505b505050505090505b60005b60188160ff16101561100b57818160ff1660188110610f97577f4e487b7100000000000000000000000000000000000000000000000000000000600052603260045260246000fd5b6020020151858260ff1660188110610fd8577f4e487b7100000000000000000000000000000000000000000000000000000000600052603260045260246000fd5b60200201818151610fe991906116b0565b91509060ff16908160ff16815250508080611003906117be565b915050610f4f565b50505b8180611019906117be565b92505050610cc7565b50809150509392505050565b826018601f016020900481019282156110b75791602002820160005b8382111561108857835183826101000a81548160ff021916908360ff160217905550926020019260010160208160000104928301926001030261104a565b80156110b55782816101000a81549060ff0219169055600101602081600001049283019260010302611088565b505b5090506110c49190611171565b5090565b8280546110d490611743565b90600052602060002090601f0160209004810192826110f6576000855561113d565b82601f1061110f57803560ff191683800117855561113d565b8280016001018555821561113d579182015b8281111561113c578235825591602001919060010190611121565b5b50905061114a9190611171565b5090565b604051806103000160405280601890602082028036833780820191505090505090565b5b8082111561118a576000816000905550600101611172565b5090565b60008083601f8401126111a057600080fd5b8235905067ffffffffffffffff8111156111b957600080fd5b6020830191508360018202830111156111d157600080fd5b9250929050565b6000813590506111e781611962565b92915050565b6000806020838503121561120057600080fd5b600083013567ffffffffffffffff81111561121a57600080fd5b6112268582860161118e565b92509250509250929050565b60008060006040848603121561124757600080fd5b6000611255868287016111d8565b935050602084013567ffffffffffffffff81111561127257600080fd5b61127e8682870161118e565b92509250509250925092565b6000806040838503121561129d57600080fd5b60006112ab858286016111d8565b92505060206112bc858286016111d8565b9150509250929050565b60006112d283836114c9565b60208301905092915050565b6112e781611671565b6112f18184611689565b92506112fc82611652565b8060005b8381101561132d57815161131487826112c6565b965061131f8361167c565b925050600181019050611300565b505050505050565b61133e816116e7565b82525050565b60006113508385611694565b935061135d83858461170a565b82840190509392505050565b6000815461137681611743565b6113808186611694565b9450600182166000811461139b57600181146113ac576113df565b60ff198316865281860193506113df565b6113b58561165c565b60005b838110156113d7578154818901526001820191506020810190506113b8565b838801955050505b50505092915050565b60006113f5601c8361169f565b915061140082611846565b602082019050919050565b600061141860128361169f565b91506114238261186f565b602082019050919050565b600061143b60148361169f565b915061144682611898565b602082019050919050565b600061145e601b8361169f565b9150611469826118c1565b602082019050919050565b6000611481601f8361169f565b915061148c826118ea565b602082019050919050565b60006114a460288361169f565b91506114af82611913565b604082019050919050565b6114c3816116f3565b82525050565b6114d2816116fd565b82525050565b6114e1816116fd565b82525050565b60006114f4828486611344565b91508190509392505050565b600061150c8284611369565b915081905092915050565b60006103008201905061152d60008301846112de565b92915050565b60006020820190506115486000830184611335565b92915050565b60006020820190508181036000830152611567816113e8565b9050919050565b600060208201905081810360008301526115878161140b565b9050919050565b600060208201905081810360008301526115a78161142e565b9050919050565b600060208201905081810360008301526115c781611451565b9050919050565b600060208201905081810360008301526115e781611474565b9050919050565b6000602082019050818103600083015261160781611497565b9050919050565b600060208201905061162360008301846114ba565b92915050565b600060408201905061163e60008301856114d8565b61164b60208301846114d8565b9392505050565b6000819050919050565b60008190508160005260206000209050919050565b600060189050919050565b6000602082019050919050565b600081905092915050565b600081905092915050565b600082825260208201905092915050565b60006116bb826116fd565b91506116c6836116fd565b92508260ff038211156116dc576116db6117e8565b5b828201905092915050565b60008115159050919050565b6000819050919050565b600060ff82169050919050565b82818337600083830152505050565b6000611724826116f3565b91506000821415611738576117376117e8565b5b600182039050919050565b6000600282049050600182168061175b57607f821691505b6020821081141561176f5761176e611817565b5b50919050565b6000611780826116f3565b91507fffffffffffffffffffffffffffffffffffffffffffffffffffffffffffffffff8214156117b3576117b26117e8565b5b600182019050919050565b60006117c9826116fd565b915060ff8214156117dd576117dc6117e8565b5b600182019050919050565b7f4e487b7100000000000000000000000000000000000000000000000000000000600052601160045260246000fd5b7f4e487b7100000000000000000000000000000000000000000000000000000000600052602260045260246000fd5b7f796f7520616c726561647920626f6f6b6564207468697320686f757200000000600082015250565b7f726f6f6d20646f65736e27742065786973740000000000000000000000000000600082015250565b7f67726f757020646f6573206e6f74206578697374000000000000000000000000600082015250565b7f796f75206861766520616c726561647920726567697374657265640000000000600082015250565b7f796f75277265206e6f742063757272656e746c79207265676973746572656400600082015250565b7f796f75206861766520746f207265676973746572206265666f726520626f6f6b60008201527f696e6720726f6f6d000000000000000000000000000000000000000000000000602082015250565b61196b816116fd565b811461197657600080fd5b5056fea2646970667358221220664323e6b81c366bda7cfc4f4099c6013a4ae0a7dd39575e83c7bd26e93ee19564736f6c63430008040033",
  "linkReferences": {},
  "deployedLinkReferences": {}
}