{
  "_format": "hh-sol-artifact-1",
  "contractName": "TwoRivalBooking",
  "sourceName": "contracts/TwoRivalBooking.sol",
  "abi": [
    {
      "inputs": [],
      "stateMutability": "nonpayable",
      "type": "constructor"
    },
    {
      "anonymous": false,
      "inputs": [
        {
          "indexed": false,
          "internalType": "bool",
          "name": "status",
          "type": "bool"
        }
      ],
      "name": "RegistrationCleared",
      "type": "event"
    },
    {
      "anonymous": false,
      "inputs": [
        {
          "indexed": false,
          "internalType": "uint8",
          "name": "roomNum",
          "type": "uint8"
        },
        {
          "indexed": false,
          "internalType": "uint8",
          "name": "hour",
          "type": "uint8"
        }
      ],
      "name": "RoomBooked",
      "type": "event"
    },
    {
      "anonymous": false,
      "inputs": [
        {
          "indexed": false,
          "internalType": "bool",
          "name": "status",
          "type": "bool"
        }
      ],
      "name": "UserRegistered",
      "type": "event"
    },
    {
      "inputs": [
        {
          "internalType": "uint8",
          "name": "hour",
          "type": "uint8"
        },
        {
          "internalType": "uint8",
          "name": "roomNum",
          "type": "uint8"
        }
      ],
      "name": "bookRoom",
      "outputs": [],
      "stateMutability": "nonpayable",
      "type": "function"
    },
    {
      "inputs": [],
      "name": "clearRegistration",
      "outputs": [],
      "stateMutability": "nonpayable",
      "type": "function"
    },
    {
      "inputs": [
        {
          "internalType": "uint8",
          "name": "room",
          "type": "uint8"
        }
      ],
      "name": "getRoom",
      "outputs": [
        {
          "internalType": "uint8[24]",
          "name": "",
          "type": "uint8[24]"
        }
      ],
      "stateMutability": "view",
      "type": "function"
    },
    {
      "inputs": [
        {
          "internalType": "string",
          "name": "_group",
          "type": "string"
        }
      ],
      "name": "registerUser",
      "outputs": [],
      "stateMutability": "nonpayable",
      "type": "function"
    },
    {
      "inputs": [],
      "name": "registrationStatus",
      "outputs": [
        {
          "internalType": "bool",
          "name": "",
          "type": "bool"
        }
      ],
      "stateMutability": "view",
      "type": "function"
    },
    {
      "inputs": [],
      "name": "totalBookings",
      "outputs": [
        {
          "internalType": "uint256",
          "name": "",
          "type": "uint256"
        }
      ],
      "stateMutability": "view",
      "type": "function"
    },
    {
      "inputs": [],
      "name": "totalRegistered",
      "outputs": [
        {
          "internalType": "uint256",
          "name": "",
          "type": "uint256"
        }
      ],
      "stateMutability": "view",
      "type": "function"
    }
  ],
  "bytecode": "0x60806040523480156200001157600080fd5b50336000806101000a81548173ffffffffffffffffffffffffffffffffffffffff021916908373ffffffffffffffffffffffffffffffffffffffff1602179055506040518060400160405280600181526020017f5000000000000000000000000000000000000000000000000000000000000000815250600190805190602001906200009f929190620000f4565b506040518060400160405280600181526020017f430000000000000000000000000000000000000000000000000000000000000081525060029080519060200190620000ed929190620000f4565b5062000209565b8280546200010290620001a4565b90600052602060002090601f01602090048101928262000126576000855562000172565b82601f106200014157805160ff191683800117855562000172565b8280016001018555821562000172579182015b828111156200017157825182559160200191906001019062000154565b5b50905062000181919062000185565b5090565b5b80821115620001a057600081600090555060010162000186565b5090565b60006002820490506001821680620001bd57607f821691505b60208210811415620001d457620001d3620001da565b5b50919050565b7f4e487b7100000000000000000000000000000000000000000000000000000000600052602260045260246000fd5b61171080620002196000396000f3fe608060405234801561001057600080fd5b506004361061007d5760003560e01c80637632514c1161005b5780637632514c146100d8578063927416c014610108578063938f82b8146101265780639668ce3e146101305761007d565b80630854254414610082578063460f4f83146100a0578063704f1b94146100bc575b600080fd5b61008a61014e565b6040516100979190611307565b60405180910390f35b6100ba60048036038101906100b59190611081565b6101a2565b005b6100d660048036038101906100d19190611013565b6107da565b005b6100f260048036038101906100ed9190611058565b610a0a565b6040516100ff91906112eb565b60405180910390f35b610110610d23565b60405161011d91906113c2565b60405180910390f35b61012e610d29565b005b610138610e47565b60405161014591906113c2565b60405180910390f35b6000600860003373ffffffffffffffffffffffffffffffffffffffff1673ffffffffffffffffffffffffffffffffffffffff16815260200190815260200160002060009054906101000a900460ff16905090565b600860003373ffffffffffffffffffffffffffffffffffffffff1673ffffffffffffffffffffffffffffffffffffffff16815260200190815260200160002060009054906101000a900460ff1661022e576040517f08c379a0000000000000000000000000000000000000000000000000000000008152600401610225906113a2565b60405180910390fd5b6000600960003373ffffffffffffffffffffffffffffffffffffffff1673ffffffffffffffffffffffffffffffffffffffff168152602001908152602001600020805461027a906114cd565b80601f01602080910402602001604051908101604052809291908181526020018280546102a6906114cd565b80156102f35780601f106102c8576101008083540402835291602001916102f3565b820191906000526020600020905b8154815290600101906020018083116102d657829003601f168201915b50505050509050600160405161030991906112d4565b60405180910390208180519060200120141561052b576000600560003373ffffffffffffffffffffffffffffffffffffffff1673ffffffffffffffffffffffffffffffffffffffff16815260200190815260200160002060008460ff1660ff1681526020019081526020016000206018806020026040519081016040528092919082601880156103d4576020028201916000905b82829054906101000a900460ff1660ff168152602001906001019060208260000104928301926001038202915080841161039d5790505b505050505090506000818560ff1660188110610419577f4e487b7100000000000000000000000000000000000000000000000000000000600052603260045260246000fd5b602002015160ff1614610461576040517f08c379a000000000000000000000000000000000000000000000000000000000815260040161045890611322565b60405180910390fd5b6001818560ff166018811061049f577f4e487b7100000000000000000000000000000000000000000000000000000000600052603260045260246000fd5b602002018181516104b09190611464565b91509060ff16908160ff168152505080600560003373ffffffffffffffffffffffffffffffffffffffff1673ffffffffffffffffffffffffffffffffffffffff16815260200190815260200160002060008560ff1660ff168152602001908152602001600020906018610524929190610e54565b5050610733565b6000600660003373ffffffffffffffffffffffffffffffffffffffff1673ffffffffffffffffffffffffffffffffffffffff16815260200190815260200160002060008460ff1660ff1681526020019081526020016000206018806020026040519081016040528092919082601880156105e0576020028201916000905b82829054906101000a900460ff1660ff16815260200190600101906020826000010492830192600103820291508084116105a95790505b505050505090506000818560ff1660188110610625577f4e487b7100000000000000000000000000000000000000000000000000000000600052603260045260246000fd5b602002015160ff161461066d576040517f08c379a000000000000000000000000000000000000000000000000000000000815260040161066490611322565b60405180910390fd5b6001818560ff16601881106106ab577f4e487b7100000000000000000000000000000000000000000000000000000000600052603260045260246000fd5b602002018181516106bc9190611464565b91509060ff16908160ff168152505080600660003373ffffffffffffffffffffffffffffffffffffffff1673ffffffffffffffffffffffffffffffffffffffff16815260200190815260200160002060008560ff1660ff168152602001908152602001600020906018610730929190610e54565b50505b60003390506007819080600181540180825580915050600190039060005260206000200160009091909190916101000a81548173ffffffffffffffffffffffffffffffffffffffff021916908373ffffffffffffffffffffffffffffffffffffffff1602179055507f1653bde251e6d9b8816eaea35348a5c25354e7c6c425205197f83b0344a904c183856040516107cc9291906113dd565b60405180910390a150505050565b600860003373ffffffffffffffffffffffffffffffffffffffff1673ffffffffffffffffffffffffffffffffffffffff16815260200190815260200160002060009054906101000a900460ff1615610867576040517f08c379a000000000000000000000000000000000000000000000000000000000815260040161085e90611362565b60405180910390fd5b600160405161087691906112d4565b6040518091039020828260405161088e9291906112bb565b6040518091039020141580156108d1575060026040516108ae91906112d4565b604051809103902082826040516108c69291906112bb565b604051809103902014155b15610911576040517f08c379a000000000000000000000000000000000000000000000000000000000815260040161090890611342565b60405180910390fd5b6001600860003373ffffffffffffffffffffffffffffffffffffffff1673ffffffffffffffffffffffffffffffffffffffff16815260200190815260200160002060006101000a81548160ff0219169083151502179055508181600960003373ffffffffffffffffffffffffffffffffffffffff1673ffffffffffffffffffffffffffffffffffffffff16815260200190815260200160002091906109b7929190610eee565b506004600081546109c7906114ff565b919050819055507fe993a15218140a471b20682b2995883f02e49baad60ead15cb7c64054c028f0b60016040516109fe9190611307565b60405180910390a15050565b610a12610f74565b6000600960003373ffffffffffffffffffffffffffffffffffffffff1673ffffffffffffffffffffffffffffffffffffffff1681526020019081526020016000208054610a5e906114cd565b80601f0160208091040260200160405190810160405280929190818152602001828054610a8a906114cd565b8015610ad75780601f10610aac57610100808354040283529160200191610ad7565b820191906000526020600020905b815481529060010190602001808311610aba57829003601f168201915b50505050509050610ae6610f74565b60005b6007805490508160ff161015610d1857600060078260ff1681548110610b38577f4e487b7100000000000000000000000000000000000000000000000000000000600052603260045260246000fd5b9060005260206000200160009054906101000a900473ffffffffffffffffffffffffffffffffffffffff1690506001604051610b7491906112d4565b604051809103902084805190602001201415610c4957600560008273ffffffffffffffffffffffffffffffffffffffff1673ffffffffffffffffffffffffffffffffffffffff16815260200190815260200160002060008760ff1660ff168152602001908152602001600020601880602002604051908101604052809291908260188015610c3d576020028201916000905b82829054906101000a900460ff1660ff1681526020019060010190602082600001049283019260010382029150808411610c065790505b50505050509250610d04565b600660008273ffffffffffffffffffffffffffffffffffffffff1673ffffffffffffffffffffffffffffffffffffffff16815260200190815260200160002060008760ff1660ff168152602001908152602001600020601880602002604051908101604052809291908260188015610cfc576020028201916000905b82829054906101000a900460ff1660ff1681526020019060010190602082600001049283019260010382029150808411610cc55790505b505050505092505b508080610d1090611548565b915050610ae9565b508092505050919050565b60045481565b600860003373ffffffffffffffffffffffffffffffffffffffff1673ffffffffffffffffffffffffffffffffffffffff16815260200190815260200160002060009054906101000a900460ff16610db5576040517f08c379a0000000000000000000000000000000000000000000000000000000008152600401610dac90611382565b60405180910390fd5b6000600860003373ffffffffffffffffffffffffffffffffffffffff1673ffffffffffffffffffffffffffffffffffffffff16815260200190815260200160002060006101000a81548160ff0219169083151502179055507f22a38c3321ba24fb25ce42832e3ab2acaaf48d6bbe71c96a0bf8c2fd6e39a55e6001604051610e3d9190611307565b60405180910390a1565b6000600780549050905090565b826018601f01602090048101928215610edd5791602002820160005b83821115610eae57835183826101000a81548160ff021916908360ff1602179055509260200192600101602081600001049283019260010302610e70565b8015610edb5782816101000a81549060ff0219169055600101602081600001049283019260010302610eae565b505b509050610eea9190610f97565b5090565b828054610efa906114cd565b90600052602060002090601f016020900481019282610f1c5760008555610f63565b82601f10610f3557803560ff1916838001178555610f63565b82800160010185558215610f63579182015b82811115610f62578235825591602001919060010190610f47565b5b509050610f709190610f97565b5090565b604051806103000160405280601890602082028036833780820191505090505090565b5b80821115610fb0576000816000905550600101610f98565b5090565b60008083601f840112610fc657600080fd5b8235905067ffffffffffffffff811115610fdf57600080fd5b602083019150836001820283011115610ff757600080fd5b9250929050565b60008135905061100d816116c3565b92915050565b6000806020838503121561102657600080fd5b600083013567ffffffffffffffff81111561104057600080fd5b61104c85828601610fb4565b92509250509250929050565b60006020828403121561106a57600080fd5b600061107884828501610ffe565b91505092915050565b6000806040838503121561109457600080fd5b60006110a285828601610ffe565b92505060206110b385828601610ffe565b9150509250929050565b60006110c9838361129d565b60208301905092915050565b6110de81611425565b6110e8818461143d565b92506110f382611406565b8060005b8381101561112457815161110b87826110bd565b965061111683611430565b9250506001810190506110f7565b505050505050565b6111358161149b565b82525050565b60006111478385611448565b93506111548385846114be565b82840190509392505050565b6000815461116d816114cd565b6111778186611448565b9450600182166000811461119257600181146111a3576111d6565b60ff198316865281860193506111d6565b6111ac85611410565b60005b838110156111ce578154818901526001820191506020810190506111af565b838801955050505b50505092915050565b60006111ec601c83611453565b91506111f7826115d0565b602082019050919050565b600061120f601483611453565b915061121a826115f9565b602082019050919050565b6000611232601b83611453565b915061123d82611622565b602082019050919050565b6000611255601f83611453565b91506112608261164b565b602082019050919050565b6000611278602883611453565b915061128382611674565b604082019050919050565b611297816114a7565b82525050565b6112a6816114b1565b82525050565b6112b5816114b1565b82525050565b60006112c882848661113b565b91508190509392505050565b60006112e08284611160565b915081905092915050565b60006103008201905061130160008301846110d5565b92915050565b600060208201905061131c600083018461112c565b92915050565b6000602082019050818103600083015261133b816111df565b9050919050565b6000602082019050818103600083015261135b81611202565b9050919050565b6000602082019050818103600083015261137b81611225565b9050919050565b6000602082019050818103600083015261139b81611248565b9050919050565b600060208201905081810360008301526113bb8161126b565b9050919050565b60006020820190506113d7600083018461128e565b92915050565b60006040820190506113f260008301856112ac565b6113ff60208301846112ac565b9392505050565b6000819050919050565b60008190508160005260206000209050919050565b600060189050919050565b6000602082019050919050565b600081905092915050565b600081905092915050565b600082825260208201905092915050565b600061146f826114b1565b915061147a836114b1565b92508260ff038211156114905761148f611572565b5b828201905092915050565b60008115159050919050565b6000819050919050565b600060ff82169050919050565b82818337600083830152505050565b600060028204905060018216806114e557607f821691505b602082108114156114f9576114f86115a1565b5b50919050565b600061150a826114a7565b91507fffffffffffffffffffffffffffffffffffffffffffffffffffffffffffffffff82141561153d5761153c611572565b5b600182019050919050565b6000611553826114b1565b915060ff82141561156757611566611572565b5b600182019050919050565b7f4e487b7100000000000000000000000000000000000000000000000000000000600052601160045260246000fd5b7f4e487b7100000000000000000000000000000000000000000000000000000000600052602260045260246000fd5b7f796f7520616c726561647920626f6f6b6564207468697320686f757200000000600082015250565b7f67726f757020646f6573206e6f74206578697374000000000000000000000000600082015250565b7f796f75206861766520616c726561647920726567697374657265640000000000600082015250565b7f796f75277265206e6f742063757272656e746c79207265676973746572656400600082015250565b7f796f75206861766520746f207265676973746572206265666f726520626f6f6b60008201527f696e6720726f6f6d000000000000000000000000000000000000000000000000602082015250565b6116cc816114b1565b81146116d757600080fd5b5056fea2646970667358221220307ae792c46d1705619d44bde261af1dce8c2897c783b56920e3648c262b8bab64736f6c63430008040033",
  "linkReferences": {},
  "deployedLinkReferences": {}
}